{
  "_format": "hh-sol-artifact-1",
  "contractName": "FootballCoin",
  "sourceName": "contracts/FootballCoin.sol",
  "abi": [
    {
      "inputs": [
        {
          "internalType": "address",
          "name": "initialOwner",
          "type": "address"
        }
      ],
      "stateMutability": "nonpayable",
      "type": "constructor"
    },
    {
      "inputs": [],
      "name": "InvalidShortString",
      "type": "error"
    },
    {
      "inputs": [
        {
          "internalType": "string",
          "name": "str",
          "type": "string"
        }
      ],
      "name": "StringTooLong",
      "type": "error"
    },
    {
      "anonymous": false,
      "inputs": [
        {
          "indexed": true,
          "internalType": "address",
          "name": "owner",
          "type": "address"
        },
        {
          "indexed": true,
          "internalType": "address",
          "name": "spender",
          "type": "address"
        },
        {
          "indexed": false,
          "internalType": "uint256",
          "name": "value",
          "type": "uint256"
        }
      ],
      "name": "Approval",
      "type": "event"
    },
    {
      "anonymous": false,
      "inputs": [],
      "name": "EIP712DomainChanged",
      "type": "event"
    },
    {
      "anonymous": false,
      "inputs": [
        {
          "indexed": true,
          "internalType": "address",
          "name": "previousOwner",
          "type": "address"
        },
        {
          "indexed": true,
          "internalType": "address",
          "name": "newOwner",
          "type": "address"
        }
      ],
      "name": "OwnershipTransferred",
      "type": "event"
    },
    {
      "anonymous": false,
      "inputs": [
        {
          "indexed": true,
          "internalType": "address",
          "name": "from",
          "type": "address"
        },
        {
          "indexed": true,
          "internalType": "address",
          "name": "to",
          "type": "address"
        },
        {
          "indexed": false,
          "internalType": "uint256",
          "name": "value",
          "type": "uint256"
        }
      ],
      "name": "Transfer",
      "type": "event"
    },
    {
      "inputs": [],
      "name": "DOMAIN_SEPARATOR",
      "outputs": [
        {
          "internalType": "bytes32",
          "name": "",
          "type": "bytes32"
        }
      ],
      "stateMutability": "view",
      "type": "function"
    },
    {
      "inputs": [
        {
          "internalType": "address",
          "name": "owner",
          "type": "address"
        },
        {
          "internalType": "address",
          "name": "spender",
          "type": "address"
        }
      ],
      "name": "allowance",
      "outputs": [
        {
          "internalType": "uint256",
          "name": "",
          "type": "uint256"
        }
      ],
      "stateMutability": "view",
      "type": "function"
    },
    {
      "inputs": [
        {
          "internalType": "address",
          "name": "spender",
          "type": "address"
        },
        {
          "internalType": "uint256",
          "name": "amount",
          "type": "uint256"
        }
      ],
      "name": "approve",
      "outputs": [
        {
          "internalType": "bool",
          "name": "",
          "type": "bool"
        }
      ],
      "stateMutability": "nonpayable",
      "type": "function"
    },
    {
      "inputs": [
        {
          "internalType": "address",
          "name": "account",
          "type": "address"
        }
      ],
      "name": "balanceOf",
      "outputs": [
        {
          "internalType": "uint256",
          "name": "",
          "type": "uint256"
        }
      ],
      "stateMutability": "view",
      "type": "function"
    },
    {
      "inputs": [],
      "name": "decimals",
      "outputs": [
        {
          "internalType": "uint8",
          "name": "",
          "type": "uint8"
        }
      ],
      "stateMutability": "view",
      "type": "function"
    },
    {
      "inputs": [
        {
          "internalType": "address",
          "name": "spender",
          "type": "address"
        },
        {
          "internalType": "uint256",
          "name": "subtractedValue",
          "type": "uint256"
        }
      ],
      "name": "decreaseAllowance",
      "outputs": [
        {
          "internalType": "bool",
          "name": "",
          "type": "bool"
        }
      ],
      "stateMutability": "nonpayable",
      "type": "function"
    },
    {
      "inputs": [],
      "name": "eip712Domain",
      "outputs": [
        {
          "internalType": "bytes1",
          "name": "fields",
          "type": "bytes1"
        },
        {
          "internalType": "string",
          "name": "name",
          "type": "string"
        },
        {
          "internalType": "string",
          "name": "version",
          "type": "string"
        },
        {
          "internalType": "uint256",
          "name": "chainId",
          "type": "uint256"
        },
        {
          "internalType": "address",
          "name": "verifyingContract",
          "type": "address"
        },
        {
          "internalType": "bytes32",
          "name": "salt",
          "type": "bytes32"
        },
        {
          "internalType": "uint256[]",
          "name": "extensions",
          "type": "uint256[]"
        }
      ],
      "stateMutability": "view",
      "type": "function"
    },
    {
      "inputs": [
        {
          "internalType": "address",
          "name": "spender",
          "type": "address"
        },
        {
          "internalType": "uint256",
          "name": "addedValue",
          "type": "uint256"
        }
      ],
      "name": "increaseAllowance",
      "outputs": [
        {
          "internalType": "bool",
          "name": "",
          "type": "bool"
        }
      ],
      "stateMutability": "nonpayable",
      "type": "function"
    },
    {
      "inputs": [
        {
          "internalType": "address",
          "name": "to",
          "type": "address"
        },
        {
          "internalType": "uint256",
          "name": "amount",
          "type": "uint256"
        }
      ],
      "name": "mint",
      "outputs": [],
      "stateMutability": "nonpayable",
      "type": "function"
    },
    {
      "inputs": [],
      "name": "name",
      "outputs": [
        {
          "internalType": "string",
          "name": "",
          "type": "string"
        }
      ],
      "stateMutability": "view",
      "type": "function"
    },
    {
      "inputs": [
        {
          "internalType": "address",
          "name": "owner",
          "type": "address"
        }
      ],
      "name": "nonces",
      "outputs": [
        {
          "internalType": "uint256",
          "name": "",
          "type": "uint256"
        }
      ],
      "stateMutability": "view",
      "type": "function"
    },
    {
      "inputs": [],
      "name": "owner",
      "outputs": [
        {
          "internalType": "address",
          "name": "",
          "type": "address"
        }
      ],
      "stateMutability": "view",
      "type": "function"
    },
    {
      "inputs": [
        {
          "internalType": "address",
          "name": "owner",
          "type": "address"
        },
        {
          "internalType": "address",
          "name": "spender",
          "type": "address"
        },
        {
          "internalType": "uint256",
          "name": "value",
          "type": "uint256"
        },
        {
          "internalType": "uint256",
          "name": "deadline",
          "type": "uint256"
        },
        {
          "internalType": "uint8",
          "name": "v",
          "type": "uint8"
        },
        {
          "internalType": "bytes32",
          "name": "r",
          "type": "bytes32"
        },
        {
          "internalType": "bytes32",
          "name": "s",
          "type": "bytes32"
        }
      ],
      "name": "permit",
      "outputs": [],
      "stateMutability": "nonpayable",
      "type": "function"
    },
    {
      "inputs": [],
      "name": "renounceOwnership",
      "outputs": [],
      "stateMutability": "nonpayable",
      "type": "function"
    },
    {
      "inputs": [],
      "name": "symbol",
      "outputs": [
        {
          "internalType": "string",
          "name": "",
          "type": "string"
        }
      ],
      "stateMutability": "view",
      "type": "function"
    },
    {
      "inputs": [],
      "name": "totalSupply",
      "outputs": [
        {
          "internalType": "uint256",
          "name": "",
          "type": "uint256"
        }
      ],
      "stateMutability": "view",
      "type": "function"
    },
    {
      "inputs": [
        {
          "internalType": "address",
          "name": "to",
          "type": "address"
        },
        {
          "internalType": "uint256",
          "name": "amount",
          "type": "uint256"
        }
      ],
      "name": "transfer",
      "outputs": [
        {
          "internalType": "bool",
          "name": "",
          "type": "bool"
        }
      ],
      "stateMutability": "nonpayable",
      "type": "function"
    },
    {
      "inputs": [
        {
          "internalType": "address",
          "name": "from",
          "type": "address"
        },
        {
          "internalType": "address",
          "name": "to",
          "type": "address"
        },
        {
          "internalType": "uint256",
          "name": "amount",
          "type": "uint256"
        }
      ],
      "name": "transferFrom",
      "outputs": [
        {
          "internalType": "bool",
          "name": "",
          "type": "bool"
        }
      ],
      "stateMutability": "nonpayable",
      "type": "function"
    },
    {
      "inputs": [
        {
          "internalType": "address",
          "name": "newOwner",
          "type": "address"
        }
      ],
      "name": "transferOwnership",
      "outputs": [],
      "stateMutability": "nonpayable",
      "type": "function"
    },
    {
      "inputs": [
        {
          "internalType": "address",
          "name": "owner",
          "type": "address"
        },
        {
          "internalType": "address",
          "name": "spender",
          "type": "address"
        }
      ],
      "name": "userAllowance",
      "outputs": [
        {
          "internalType": "uint256",
          "name": "",
          "type": "uint256"
        }
      ],
      "stateMutability": "view",
      "type": "function"
    },
    {
      "inputs": [
        {
          "internalType": "address",
          "name": "user",
          "type": "address"
        }
      ],
      "name": "userBalanceOf",
      "outputs": [
        {
          "internalType": "uint256",
          "name": "",
          "type": "uint256"
        }
      ],
      "stateMutability": "view",
      "type": "function"
    }
  ],
  "bytecode": "0x6101606040523480156200001257600080fd5b5060405162001abf38038062001abf8339810160408190526200003591620002c0565b6040518060400160405280600c81526020016b2337b7ba3130b63621b7b4b760a11b81525080604051806040016040528060018152602001603160f81b8152506040518060400160405280600c81526020016b2337b7ba3130b63621b7b4b760a11b8152506040518060400160405280600381526020016246424360e81b8152508160039081620000c7919062000397565b506004620000d6828262000397565b505050620000f3620000ed620001cb60201b60201c565b620001cf565b6200010e6006836200022160201b6200078c1790919060201c565b610120526200012b81600762000221602090811b6200078c17901c565b61014052815160208084019190912060e052815190820120610100524660a052620001b960e05161010051604080517f8b73c3c69bb8fe3d512ecc4cf759cc79239f7b179b0ffacaa9a75d522b39400f60208201529081019290925260608201524660808201523060a082015260009060c00160405160208183030381529060405280519060200120905090565b60805250503060c05250620004d89050565b3390565b600580546001600160a01b038381166001600160a01b0319831681179093556040519116919082907f8be0079c531659141344cd1fd0a4f28419497f9722a3daafe3b4186f6b6457e090600090a35050565b60006020835110156200024157620002398362000271565b90506200026b565b826200025883620002bd60201b620007bd1760201c565b9062000265908262000397565b5060ff90505b92915050565b600080829050601f81511115620002a8578260405163305a27a960e01b81526004016200029f919062000463565b60405180910390fd5b8051620002b582620004b3565b179392505050565b90565b600060208284031215620002d357600080fd5b81516001600160a01b0381168114620002eb57600080fd5b9392505050565b634e487b7160e01b600052604160045260246000fd5b600181811c908216806200031d57607f821691505b6020821081036200033e57634e487b7160e01b600052602260045260246000fd5b50919050565b601f8211156200039257600081815260208120601f850160051c810160208610156200036d5750805b601f850160051c820191505b818110156200038e5782815560010162000379565b5050505b505050565b81516001600160401b03811115620003b357620003b3620002f2565b620003cb81620003c4845462000308565b8462000344565b602080601f831160018114620004035760008415620003ea5750858301515b600019600386901b1c1916600185901b1785556200038e565b600085815260208120601f198616915b82811015620004345788860151825594840194600190910190840162000413565b5085821015620004535787850151600019600388901b60f8161c191681555b5050505050600190811b01905550565b600060208083528351808285015260005b81811015620004925785810183015185820160400152820162000474565b506000604082860101526040601f19601f8301168501019250505092915050565b805160208083015191908110156200033e5760001960209190910360031b1b16919050565b60805160a05160c05160e05161010051610120516101405161158c6200053360003960006104840152600061045901526000610bdc01526000610bb401526000610b0f01526000610b3901526000610b63015261158c6000f3fe608060405234801561001057600080fd5b50600436106101375760003560e01c8063715018a6116100b8578063a457c2d71161007c578063a457c2d71461027a578063a9059cbb1461028d578063c172ad36146102a0578063d505accf146102b3578063dd62ed3e146102c6578063f2fde38b146102d957600080fd5b8063715018a6146102215780637ecebe001461022957806384b0196e1461023c5780638da5cb5b1461025757806395d89b411461027257600080fd5b8063313ce567116100ff578063313ce567146101b95780633644e515146101c857806339509351146101d057806340c10f19146101e357806370a08231146101f857600080fd5b806306fdde031461013c578063095ea7b31461015a5780630cb222891461017d57806318160ddd1461019e57806323b872dd146101a6575b600080fd5b6101446102ec565b60405161015191906111b7565b60405180910390f35b61016d6101683660046111e6565b61037e565b6040519015158152602001610151565b61019061018b366004611210565b610398565b604051908152602001610151565b600254610190565b61016d6101b436600461122b565b6103b6565b60405160128152602001610151565b6101906103da565b61016d6101de3660046111e6565b6103e9565b6101f66101f13660046111e6565b61040b565b005b610190610206366004611210565b6001600160a01b031660009081526020819052604090205490565b6101f6610419565b610190610237366004611210565b61042d565b61024461044b565b6040516101519796959493929190611267565b6005546040516001600160a01b039091168152602001610151565b6101446104d4565b61016d6102883660046111e6565b6104e3565b61016d61029b3660046111e6565b610563565b6101906102ae3660046112fd565b610571565b6101f66102c1366004611330565b610584565b6101906102d43660046112fd565b6106e8565b6101f66102e7366004611210565b610713565b6060600380546102fb906113a3565b80601f0160208091040260200160405190810160405280929190818152602001828054610327906113a3565b80156103745780601f1061034957610100808354040283529160200191610374565b820191906000526020600020905b81548152906001019060200180831161035757829003601f168201915b5050505050905090565b60003361038c8185856107c0565b60019150505b92915050565b6001600160a01b038116600090815260208190526040812054610392565b6000336103c48582856108e4565b6103cf85858561095e565b506001949350505050565b60006103e4610b02565b905090565b60003361038c8185856103fc83836106e8565b61040691906113d7565b6107c0565b6104158282610c2d565b5050565b610421610cec565b61042b6000610d46565b565b6001600160a01b038116600090815260086020526040812054610392565b60006060808280808361047f7f00000000000000000000000000000000000000000000000000000000000000006006610d98565b6104aa7f00000000000000000000000000000000000000000000000000000000000000006007610d98565b60408051600080825260208201909252600f60f81b9b939a50919850469750309650945092509050565b6060600480546102fb906113a3565b600033816104f182866106e8565b9050838110156105565760405162461bcd60e51b815260206004820152602560248201527f45524332303a2064656372656173656420616c6c6f77616e63652062656c6f77604482015264207a65726f60d81b60648201526084015b60405180910390fd5b6103cf82868684036107c0565b60003361038c81858561095e565b600061057d83836106e8565b9392505050565b834211156105d45760405162461bcd60e51b815260206004820152601d60248201527f45524332305065726d69743a206578706972656420646561646c696e65000000604482015260640161054d565b60007f6e71edae12b1b97f4d1f60370fef10105fa2faae0126114a169c64845d6126c98888886106038c610e3c565b6040805160208101969096526001600160a01b0394851690860152929091166060840152608083015260a082015260c0810186905260e001604051602081830303815290604052805190602001209050600061065e82610e64565b9050600061066e82878787610e91565b9050896001600160a01b0316816001600160a01b0316146106d15760405162461bcd60e51b815260206004820152601e60248201527f45524332305065726d69743a20696e76616c6964207369676e61747572650000604482015260640161054d565b6106dc8a8a8a6107c0565b50505050505050505050565b6001600160a01b03918216600090815260016020908152604080832093909416825291909152205490565b61071b610cec565b6001600160a01b0381166107805760405162461bcd60e51b815260206004820152602660248201527f4f776e61626c653a206e6577206f776e657220697320746865207a65726f206160448201526564647265737360d01b606482015260840161054d565b61078981610d46565b50565b60006020835110156107a8576107a183610eb9565b9050610392565b816107b3848261145c565b5060ff9050610392565b90565b6001600160a01b0383166108225760405162461bcd60e51b8152602060048201526024808201527f45524332303a20617070726f76652066726f6d20746865207a65726f206164646044820152637265737360e01b606482015260840161054d565b6001600160a01b0382166108835760405162461bcd60e51b815260206004820152602260248201527f45524332303a20617070726f766520746f20746865207a65726f206164647265604482015261737360f01b606482015260840161054d565b6001600160a01b0383811660008181526001602090815260408083209487168084529482529182902085905590518481527f8c5be1e5ebec7d5bd14f71427d1e84f3dd0314c0f7b2291e5b200ac8c7c3b925910160405180910390a3505050565b60006108f084846106e8565b90506000198114610958578181101561094b5760405162461bcd60e51b815260206004820152601d60248201527f45524332303a20696e73756666696369656e7420616c6c6f77616e6365000000604482015260640161054d565b61095884848484036107c0565b50505050565b6001600160a01b0383166109c25760405162461bcd60e51b815260206004820152602560248201527f45524332303a207472616e736665722066726f6d20746865207a65726f206164604482015264647265737360d81b606482015260840161054d565b6001600160a01b038216610a245760405162461bcd60e51b815260206004820152602360248201527f45524332303a207472616e7366657220746f20746865207a65726f206164647260448201526265737360e81b606482015260840161054d565b6001600160a01b03831660009081526020819052604090205481811015610a9c5760405162461bcd60e51b815260206004820152602660248201527f45524332303a207472616e7366657220616d6f756e7420657863656564732062604482015265616c616e636560d01b606482015260840161054d565b6001600160a01b03848116600081815260208181526040808320878703905593871680835291849020805487019055925185815290927fddf252ad1be2c89b69c2b068fc378daa952ba7f163c4a11628f55a4df523b3ef910160405180910390a3610958565b6000306001600160a01b037f000000000000000000000000000000000000000000000000000000000000000016148015610b5b57507f000000000000000000000000000000000000000000000000000000000000000046145b15610b8557507f000000000000000000000000000000000000000000000000000000000000000090565b6103e4604080517f8b73c3c69bb8fe3d512ecc4cf759cc79239f7b179b0ffacaa9a75d522b39400f60208201527f0000000000000000000000000000000000000000000000000000000000000000918101919091527f000000000000000000000000000000000000000000000000000000000000000060608201524660808201523060a082015260009060c00160405160208183030381529060405280519060200120905090565b6001600160a01b038216610c835760405162461bcd60e51b815260206004820152601f60248201527f45524332303a206d696e7420746f20746865207a65726f206164647265737300604482015260640161054d565b8060026000828254610c9591906113d7565b90915550506001600160a01b038216600081815260208181526040808320805486019055518481527fddf252ad1be2c89b69c2b068fc378daa952ba7f163c4a11628f55a4df523b3ef910160405180910390a35050565b6005546001600160a01b0316331461042b5760405162461bcd60e51b815260206004820181905260248201527f4f776e61626c653a2063616c6c6572206973206e6f7420746865206f776e6572604482015260640161054d565b600580546001600160a01b038381166001600160a01b0319831681179093556040519116919082907f8be0079c531659141344cd1fd0a4f28419497f9722a3daafe3b4186f6b6457e090600090a35050565b606060ff8314610dab576107a183610efc565b818054610db7906113a3565b80601f0160208091040260200160405190810160405280929190818152602001828054610de3906113a3565b8015610e305780601f10610e0557610100808354040283529160200191610e30565b820191906000526020600020905b815481529060010190602001808311610e1357829003601f168201915b50505050509050610392565b6001600160a01b03811660009081526008602052604090208054600181018255905b50919050565b6000610392610e71610b02565b8360405161190160f01b8152600281019290925260228201526042902090565b6000806000610ea287878787610f3b565b91509150610eaf81610fff565b5095945050505050565b600080829050601f81511115610ee4578260405163305a27a960e01b815260040161054d91906111b7565b8051610eef8261151c565b179392505050565b505050565b60606000610f0983611149565b604080516020808252818301909252919250600091906020820181803683375050509182525060208101929092525090565b6000807f7fffffffffffffffffffffffffffffff5d576e7357a4501ddfe92f46681b20a0831115610f725750600090506003610ff6565b6040805160008082526020820180845289905260ff881692820192909252606081018690526080810185905260019060a0016020604051602081039080840390855afa158015610fc6573d6000803e3d6000fd5b5050604051601f1901519150506001600160a01b038116610fef57600060019250925050610ff6565b9150600090505b94509492505050565b600081600481111561101357611013611540565b0361101b5750565b600181600481111561102f5761102f611540565b0361107c5760405162461bcd60e51b815260206004820152601860248201527f45434453413a20696e76616c6964207369676e61747572650000000000000000604482015260640161054d565b600281600481111561109057611090611540565b036110dd5760405162461bcd60e51b815260206004820152601f60248201527f45434453413a20696e76616c6964207369676e6174757265206c656e67746800604482015260640161054d565b60038160048111156110f1576110f1611540565b036107895760405162461bcd60e51b815260206004820152602260248201527f45434453413a20696e76616c6964207369676e6174757265202773272076616c604482015261756560f01b606482015260840161054d565b600060ff8216601f81111561039257604051632cd44ac360e21b815260040160405180910390fd5b6000815180845260005b818110156111975760208185018101518683018201520161117b565b506000602082860101526020601f19601f83011685010191505092915050565b60208152600061057d6020830184611171565b80356001600160a01b03811681146111e157600080fd5b919050565b600080604083850312156111f957600080fd5b611202836111ca565b946020939093013593505050565b60006020828403121561122257600080fd5b61057d826111ca565b60008060006060848603121561124057600080fd5b611249846111ca565b9250611257602085016111ca565b9150604084013590509250925092565b60ff60f81b881681526000602060e08184015261128760e084018a611171565b8381036040850152611299818a611171565b606085018990526001600160a01b038816608086015260a0850187905284810360c0860152855180825283870192509083019060005b818110156112eb578351835292840192918401916001016112cf565b50909c9b505050505050505050505050565b6000806040838503121561131057600080fd5b611319836111ca565b9150611327602084016111ca565b90509250929050565b600080600080600080600060e0888a03121561134b57600080fd5b611354886111ca565b9650611362602089016111ca565b95506040880135945060608801359350608088013560ff8116811461138657600080fd5b9699959850939692959460a0840135945060c09093013592915050565b600181811c908216806113b757607f821691505b602082108103610e5e57634e487b7160e01b600052602260045260246000fd5b8082018082111561039257634e487b7160e01b600052601160045260246000fd5b634e487b7160e01b600052604160045260246000fd5b601f821115610ef757600081815260208120601f850160051c810160208610156114355750805b601f850160051c820191505b8181101561145457828155600101611441565b505050505050565b815167ffffffffffffffff811115611476576114766113f8565b61148a8161148484546113a3565b8461140e565b602080601f8311600181146114bf57600084156114a75750858301515b600019600386901b1c1916600185901b178555611454565b600085815260208120601f198616915b828110156114ee578886015182559484019460019091019084016114cf565b508582101561150c5787850151600019600388901b60f8161c191681555b5050505050600190811b01905550565b80516020808301519190811015610e5e5760001960209190910360031b1b16919050565b634e487b7160e01b600052602160045260246000fdfea26469706673582212206e5b8b3dc858059e1986122b4d71dcc83eeb909d61bc1c5fb3c976f50becb05c64736f6c63430008110033",
  "linkReferences": {},
  "deployedLinkReferences": {}
}