{
  "_format": "hh-sol-artifact-1",
  "contractName": "FootballGame",
  "sourceName": "contracts/FootballGame.sol",
  "abi": [
    {
      "inputs": [
        {
          "internalType": "contract IERC20",
          "name": "_footballCoin",
          "type": "address"
        },
        {
          "internalType": "uint256",
          "name": "_timelockBlocks",
          "type": "uint256"
        }
      ],
      "stateMutability": "nonpayable",
      "type": "constructor"
    },
    {
      "anonymous": false,
      "inputs": [
        {
          "indexed": false,
          "internalType": "uint256",
          "name": "gameId",
          "type": "uint256"
        },
        {
          "indexed": true,
          "internalType": "address",
          "name": "sender",
          "type": "address"
        },
        {
          "indexed": true,
          "internalType": "address",
          "name": "recipient",
          "type": "address"
        },
        {
          "indexed": false,
          "internalType": "uint256",
          "name": "wagerAmount",
          "type": "uint256"
        },
        {
          "indexed": false,
          "internalType": "uint256",
          "name": "blockNumber",
          "type": "uint256"
        }
      ],
      "name": "GameAccepted",
      "type": "event"
    },
    {
      "anonymous": false,
      "inputs": [
        {
          "indexed": false,
          "internalType": "uint256",
          "name": "gameId",
          "type": "uint256"
        },
        {
          "indexed": true,
          "internalType": "address",
          "name": "sender",
          "type": "address"
        },
        {
          "indexed": true,
          "internalType": "address",
          "name": "recipient",
          "type": "address"
        }
      ],
      "name": "GameFinished",
      "type": "event"
    },
    {
      "anonymous": false,
      "inputs": [
        {
          "indexed": false,
          "internalType": "uint256",
          "name": "gameId",
          "type": "uint256"
        },
        {
          "indexed": true,
          "internalType": "address",
          "name": "sender",
          "type": "address"
        },
        {
          "indexed": true,
          "internalType": "address",
          "name": "recipient",
          "type": "address"
        }
      ],
      "name": "GameFinishedByTimelock",
      "type": "event"
    },
    {
      "anonymous": false,
      "inputs": [
        {
          "indexed": false,
          "internalType": "uint256",
          "name": "gameId",
          "type": "uint256"
        },
        {
          "indexed": true,
          "internalType": "address",
          "name": "sender",
          "type": "address"
        },
        {
          "indexed": true,
          "internalType": "address",
          "name": "recipient",
          "type": "address"
        },
        {
          "indexed": false,
          "internalType": "uint256",
          "name": "wagerAmount",
          "type": "uint256"
        },
        {
          "indexed": false,
          "internalType": "uint256",
          "name": "blockNumber",
          "type": "uint256"
        }
      ],
      "name": "GameProposed",
      "type": "event"
    },
    {
      "inputs": [
        {
          "internalType": "uint256",
          "name": "gameId",
          "type": "uint256"
        },
        {
          "internalType": "uint256[]",
          "name": "formation",
          "type": "uint256[]"
        }
      ],
      "name": "acceptGame",
      "outputs": [],
      "stateMutability": "nonpayable",
      "type": "function"
    },
    {
      "inputs": [
        {
          "internalType": "uint256",
          "name": "playerId",
          "type": "uint256"
        },
        {
          "internalType": "uint256",
          "name": "teamId",
          "type": "uint256"
        },
        {
          "internalType": "uint256",
          "name": "position",
          "type": "uint256"
        },
        {
          "internalType": "uint128",
          "name": "attack",
          "type": "uint128"
        },
        {
          "internalType": "uint128",
          "name": "defense",
          "type": "uint128"
        },
        {
          "internalType": "uint128",
          "name": "speed",
          "type": "uint128"
        },
        {
          "internalType": "uint128",
          "name": "power",
          "type": "uint128"
        },
        {
          "internalType": "uint128",
          "name": "stamina",
          "type": "uint128"
        },
        {
          "internalType": "uint128",
          "name": "technique",
          "type": "uint128"
        },
        {
          "internalType": "uint128",
          "name": "goalkeeping",
          "type": "uint128"
        }
      ],
      "name": "addPlayer",
      "outputs": [],
      "stateMutability": "nonpayable",
      "type": "function"
    },
    {
      "inputs": [],
      "name": "footballCoin",
      "outputs": [
        {
          "internalType": "contract IERC20",
          "name": "",
          "type": "address"
        }
      ],
      "stateMutability": "view",
      "type": "function"
    },
    {
      "inputs": [],
      "name": "gameCount",
      "outputs": [
        {
          "internalType": "uint256",
          "name": "",
          "type": "uint256"
        }
      ],
      "stateMutability": "view",
      "type": "function"
    },
    {
      "inputs": [
        {
          "internalType": "uint256",
          "name": "",
          "type": "uint256"
        }
      ],
      "name": "games",
      "outputs": [
        {
          "internalType": "uint256",
          "name": "gameId",
          "type": "uint256"
        },
        {
          "internalType": "address",
          "name": "challenger",
          "type": "address"
        },
        {
          "internalType": "address",
          "name": "opponent",
          "type": "address"
        },
        {
          "internalType": "uint256",
          "name": "wagerAmount",
          "type": "uint256"
        },
        {
          "components": [
            {
              "internalType": "uint256",
              "name": "goalsHomeTeam",
              "type": "uint256"
            },
            {
              "internalType": "uint256",
              "name": "goalsAwayTeam",
              "type": "uint256"
            }
          ],
          "internalType": "struct FootballGame.GameResult",
          "name": "result",
          "type": "tuple"
        },
        {
          "internalType": "uint256",
          "name": "blockNumber",
          "type": "uint256"
        },
        {
          "internalType": "enum FootballGame.Status",
          "name": "status",
          "type": "uint8"
        }
      ],
      "stateMutability": "view",
      "type": "function"
    },
    {
      "inputs": [
        {
          "internalType": "uint256",
          "name": "gameId",
          "type": "uint256"
        }
      ],
      "name": "getGame",
      "outputs": [
        {
          "components": [
            {
              "internalType": "uint256",
              "name": "gameId",
              "type": "uint256"
            },
            {
              "internalType": "address",
              "name": "challenger",
              "type": "address"
            },
            {
              "internalType": "address",
              "name": "opponent",
              "type": "address"
            },
            {
              "internalType": "uint256",
              "name": "wagerAmount",
              "type": "uint256"
            },
            {
              "internalType": "uint256[]",
              "name": "challengerFormation",
              "type": "uint256[]"
            },
            {
              "internalType": "uint256[]",
              "name": "opponentFormation",
              "type": "uint256[]"
            },
            {
              "components": [
                {
                  "internalType": "uint256",
                  "name": "goalsHomeTeam",
                  "type": "uint256"
                },
                {
                  "internalType": "uint256",
                  "name": "goalsAwayTeam",
                  "type": "uint256"
                }
              ],
              "internalType": "struct FootballGame.GameResult",
              "name": "result",
              "type": "tuple"
            },
            {
              "internalType": "uint256",
              "name": "blockNumber",
              "type": "uint256"
            },
            {
              "internalType": "enum FootballGame.Status",
              "name": "status",
              "type": "uint8"
            }
          ],
          "internalType": "struct FootballGame.Game",
          "name": "",
          "type": "tuple"
        }
      ],
      "stateMutability": "view",
      "type": "function"
    },
    {
      "inputs": [],
      "name": "getGameCount",
      "outputs": [
        {
          "internalType": "uint256",
          "name": "",
          "type": "uint256"
        }
      ],
      "stateMutability": "view",
      "type": "function"
    },
    {
      "inputs": [],
      "name": "getGames",
      "outputs": [
        {
          "components": [
            {
              "internalType": "uint256",
              "name": "gameId",
              "type": "uint256"
            },
            {
              "internalType": "address",
              "name": "challenger",
              "type": "address"
            },
            {
              "internalType": "address",
              "name": "opponent",
              "type": "address"
            },
            {
              "internalType": "uint256",
              "name": "wagerAmount",
              "type": "uint256"
            },
            {
              "internalType": "uint256[]",
              "name": "challengerFormation",
              "type": "uint256[]"
            },
            {
              "internalType": "uint256[]",
              "name": "opponentFormation",
              "type": "uint256[]"
            },
            {
              "components": [
                {
                  "internalType": "uint256",
                  "name": "goalsHomeTeam",
                  "type": "uint256"
                },
                {
                  "internalType": "uint256",
                  "name": "goalsAwayTeam",
                  "type": "uint256"
                }
              ],
              "internalType": "struct FootballGame.GameResult",
              "name": "result",
              "type": "tuple"
            },
            {
              "internalType": "uint256",
              "name": "blockNumber",
              "type": "uint256"
            },
            {
              "internalType": "enum FootballGame.Status",
              "name": "status",
              "type": "uint8"
            }
          ],
          "internalType": "struct FootballGame.Game[]",
          "name": "",
          "type": "tuple[]"
        }
      ],
      "stateMutability": "view",
      "type": "function"
    },
    {
      "inputs": [
        {
          "internalType": "uint256",
          "name": "gameId",
          "type": "uint256"
        }
      ],
      "name": "opponentClaimTimelock",
      "outputs": [],
      "stateMutability": "nonpayable",
      "type": "function"
    },
    {
      "inputs": [],
      "name": "owner",
      "outputs": [
        {
          "internalType": "address",
          "name": "",
          "type": "address"
        }
      ],
      "stateMutability": "view",
      "type": "function"
    },
    {
      "inputs": [
        {
          "internalType": "uint256",
          "name": "",
          "type": "uint256"
        }
      ],
      "name": "players",
      "outputs": [
        {
          "internalType": "uint256",
          "name": "player_id",
          "type": "uint256"
        },
        {
          "internalType": "uint256",
          "name": "team_id",
          "type": "uint256"
        },
        {
          "internalType": "uint256",
          "name": "position",
          "type": "uint256"
        },
        {
          "internalType": "uint128",
          "name": "attack",
          "type": "uint128"
        },
        {
          "internalType": "uint128",
          "name": "defense",
          "type": "uint128"
        },
        {
          "internalType": "uint128",
          "name": "speed",
          "type": "uint128"
        },
        {
          "internalType": "uint128",
          "name": "power",
          "type": "uint128"
        },
        {
          "internalType": "uint128",
          "name": "stamina",
          "type": "uint128"
        },
        {
          "internalType": "uint128",
          "name": "technique",
          "type": "uint128"
        },
        {
          "internalType": "uint128",
          "name": "goalkeeping",
          "type": "uint128"
        }
      ],
      "stateMutability": "view",
      "type": "function"
    },
    {
      "inputs": [
        {
          "internalType": "address",
          "name": "opponent",
          "type": "address"
        },
        {
          "internalType": "uint256",
          "name": "wagerAmount",
          "type": "uint256"
        },
        {
          "internalType": "uint256[]",
          "name": "formation",
          "type": "uint256[]"
        }
      ],
      "name": "proposeGame",
      "outputs": [],
      "stateMutability": "nonpayable",
      "type": "function"
    },
    {
      "inputs": [
        {
          "internalType": "uint256",
          "name": "gameId",
          "type": "uint256"
        }
      ],
      "name": "revealOutcome",
      "outputs": [],
      "stateMutability": "nonpayable",
      "type": "function"
    },
    {
      "inputs": [],
      "name": "timelockBlocks",
      "outputs": [
        {
          "internalType": "uint256",
          "name": "",
          "type": "uint256"
        }
      ],
      "stateMutability": "view",
      "type": "function"
    }
  ],
  "bytecode": "0x608060405234801561001057600080fd5b50604051611e8c380380611e8c83398101604081905261002f91610066565b60008054336001600160a01b031991821617909155600180549091166001600160a01b0393909316929092179091556002556100a0565b6000806040838503121561007957600080fd5b82516001600160a01b038116811461009057600080fd5b6020939093015192949293505050565b611ddd806100af6000396000f3fe608060405234801561001057600080fd5b50600436106100ea5760003560e01c8063a2f77bcc1161008c578063cfb9479811610066578063cfb9479814610255578063e87c0ee614610268578063f71d96cb14610270578063fda0f9a21461034457600080fd5b8063a2f77bcc1461020d578063c04c59471461022d578063cd86f8101461024257600080fd5b806359c892a9116100c857806359c892a9146101a957806364407bad146101bc5780638da5cb5b146101e757806394b1e595146101fa57600080fd5b8063117a5b90146100ef5780634d1975b41461017d578063506d7e2d14610194575b600080fd5b6101616100fd36600461185d565b6004602090815260009182526040918290208054600182015460028301546003840154865180880190975260068501548752600785015495870195909552600884015460099094015492956001600160a01b03928316959190921693909260ff1687565b60405161017497969594939291906118ae565b60405180910390f35b61018660055481565b604051908152602001610174565b6101a76101a2366004611926565b61034d565b005b6101a76101b7366004611a7c565b610496565b6001546101cf906001600160a01b031681565b6040516001600160a01b039091168152602001610174565b6000546101cf906001600160a01b031681565b6101a761020836600461185d565b6107cc565b61022061021b36600461185d565b610949565b6040516101749190611bc0565b610235610aa7565b6040516101749190611bda565b6101a7610250366004611c3c565b610c9e565b6101a761026336600461185d565b611033565b600554610186565b6102e761027e36600461185d565b600660208190526000918252604090912080546001820154600283015460038401546004850154600586015495909601549395929491936001600160801b0380831694600160801b9384900482169481831694918290048316938184169392909104821691168a565b604080519a8b5260208b0199909952978901969096526001600160801b039485166060890152928416608088015290831660a0870152821660c0860152811660e08501529081166101008401521661012082015261014001610174565b61018660025481565b6000546001600160a01b031633146103ac5760405162461bcd60e51b815260206004820152601760248201527f43616c6c6572206973206e6f7420746865206f776e657200000000000000000060448201526064015b60405180910390fd5b60408051610140810182528b815260208082019b8c528183019a8b526001600160801b03998a1660608301908152988a1660808301908152978a1660a08301908152968a1660c08301908152958a1660e08301908152948a166101008301908152938a16610120830190815260009d8e5260069182905292909c2090518155995160018b0155975160028a015594519351938616600160801b94871685021760038901559151905190851690851683021760048701555191519183169183160217600584015590519190920180546fffffffffffffffffffffffffffffffff191691909216179055565b600082815260046020526040902060028101546001600160a01b0316331461050e5760405162461bcd60e51b815260206004820152602560248201527f4f6e6c7920746865206f70706f6e656e742063616e20616363657074207468656044820152642067616d6560d81b60648201526084016103a3565b6003810154600154604051636eb1769f60e11b81523360048201523060248201526001600160a01b039091169063dd62ed3e90604401602060405180830381865afa158015610561573d6000803e3d6000fd5b505050506040513d601f19601f820116820180604052508101906105859190611ca1565b10156105d35760405162461bcd60e51b815260206004820181905260248201527f496e73756666696369656e7420616c6c6f77616e636520666f7220776167657260448201526064016103a3565b6000600982015460ff1660038111156105ee576105ee611876565b1461062d5760405162461bcd60e51b815260206004820152600f60248201526e496e636f727265637420737461746560881b60448201526064016103a3565b60005b82518110156106be576006600084838151811061064f5761064f611cba565b60200260200101518152602001908152602001600020600001546000036106ac5760405162461bcd60e51b8152602060048201526011602482015270125b9d985b1a59081c1b185e595c881a59607a1b60448201526064016103a3565b806106b681611ce6565b915050610630565b5060015460038201546040516323b872dd60e01b815233600482015230602482015260448101919091526001600160a01b03909116906323b872dd906064016020604051808303816000875af115801561071c573d6000803e3d6000fd5b505050506040513d601f19601f820116820180604052508101906107409190611cff565b5081516107569060058301906020850190611734565b50436008820181905560098201805460ff1916600190811790915582015460038301546040805187815260208101929092528101929092526001600160a01b03169033907f3f9bd1ba680334360f5cfe7c55feb3bb67931ebd35c2020b389a5a52a9cc1eb49060600160405180910390a3505050565b600081815260046020526040902060028101546001600160a01b031633146108475760405162461bcd60e51b815260206004820152602860248201527f4f6e6c7920746865206f70706f6e656e742063616e20636c61696d207468652060448201526774696d656c6f636b60c01b60648201526084016103a3565b60025481600801546108599190611d21565b43116108d75760405162461bcd60e51b815260206004820152604160248201527f4f70706f6e656e742063616e20636c61696d2074696d656c6f636b206f6e6c7960448201527f2061667465722074696d656c6f636b426c6f636b7320686176652070617373656064820152601960fa1b608482015260a4016103a3565b60098101805460ff1916600317905560028101546108ff9082906001600160a01b03166111b1565b60018101546040518381526001600160a01b039091169033907fb6f60e952021d7bcf89b0cc9d3fac667423e6df8dba9bfeedca45c5b8c166adf9060200160405180910390a35050565b61095161177f565b6000828152600460208181526040928390208351610120810185528154815260018201546001600160a01b0390811682850152600283015416818601526003820154606082015292810180548551818502810185019096528086529394919360808601938301828280156109e457602002820191906000526020600020905b8154815260200190600101908083116109d0575b5050505050815260200160058201805480602002602001604051908101604052809291908181526020018280548015610a3c57602002820191906000526020600020905b815481526020019060010190808311610a28575b5050509183525050604080518082018252600684015481526007840154602082810191909152830152600883015490820152600982015460609091019060ff166003811115610a8d57610a8d611876565b6003811115610a9e57610a9e611876565b90525092915050565b6060600060055467ffffffffffffffff811115610ac657610ac66119cb565b604051908082528060200260200182016040528015610aff57816020015b610aec61177f565b815260200190600190039081610ae45790505b50905060015b6005548111610c98576000818152600460208181526040928390208351610120810185528154815260018201546001600160a01b039081168285015260028301541681860152600382015460608201529281018054855181850281018501909652808652939491936080860193830182828015610ba157602002820191906000526020600020905b815481526020019060010190808311610b8d575b5050505050815260200160058201805480602002602001604051908101604052809291908181526020018280548015610bf957602002820191906000526020600020905b815481526020019060010190808311610be5575b5050509183525050604080518082018252600684015481526007840154602082810191909152830152600883015490820152600982015460609091019060ff166003811115610c4a57610c4a611876565b6003811115610c5b57610c5b611876565b90525082610c6a600184611d34565b81518110610c7a57610c7a611cba565b60200260200101819052508080610c9090611ce6565b915050610b05565b50919050565b600154604051636eb1769f60e11b815233600482015230602482015283916001600160a01b03169063dd62ed3e90604401602060405180830381865afa158015610cec573d6000803e3d6000fd5b505050506040513d601f19601f82011682018060405250810190610d109190611ca1565b1015610d5e5760405162461bcd60e51b815260206004820181905260248201527f496e73756666696369656e7420616c6c6f77616e636520666f7220776167657260448201526064016103a3565b60005b8151811015610def5760066000838381518110610d8057610d80611cba565b6020026020010151815260200190815260200160002060000154600003610ddd5760405162461bcd60e51b8152602060048201526011602482015270125b9d985b1a59081c1b185e595c881a59607a1b60448201526064016103a3565b80610de781611ce6565b915050610d61565b506001546040516323b872dd60e01b8152336004820152306024820152604481018490526001600160a01b03909116906323b872dd906064016020604051808303816000875af1158015610e47573d6000803e3d6000fd5b505050506040513d601f19601f82011682018060405250810190610e6b9190611cff565b506000600560008154610e7d90611ce6565b918290555060408051610120810182528281523360208083019182526001600160a01b03898116848601908152606085018a81528651600080825281860189526080880191825288518181528087018a5260a08901528851808a018a5281815280870182905260c08901524360e0890152610100880181905289815260048087529890208751815595516001870180549186166001600160a01b03199283161790559251600287018054919095169316929092179092559051600384015551805195965092949193610f559390850192910190611734565b5060a08201518051610f71916005840191602090910190611734565b5060c08201518051600683015560200151600782015560e0820151600882015561010082015160098201805460ff19166001836003811115610fb557610fb5611876565b0217905550505060008181526003602090815260409091208351610fdb92850190611734565b50604080518281526020810185905243918101919091526001600160a01b0385169033907f02c4c4ed29b388428cf1564d10b179c4153a007fb74269c8cc4681465146f50a906060015b60405180910390a350505050565b600081815260046020526040902060018101546001600160a01b031633146110b05760405162461bcd60e51b815260206004820152602a60248201527f4f6e6c7920746865206368616c6c656e6765722063616e2072657665616c20746044820152696865206f7574636f6d6560b01b60648201526084016103a3565b6001600982015460ff1660038111156110cb576110cb611876565b1461110a5760405162461bcd60e51b815260206004820152600f60248201526e496e636f727265637420737461746560881b60448201526064016103a3565b60008281526003602052604090208054611128916004840191611808565b5060006111348261143a565b805160068401556020810151600784015560098301805460ff191660021790559050600061116283836116e3565b905061116e83826111b1565b60028301546040518581526001600160a01b039091169033907f242f4c122901edd03165283a5957c7f0445c5227fdaebe5fc500f2c62c61ae0990602001611025565b6001600160a01b03811661135d576001805490830154600384015460405163a9059cbb60e01b81526001600160a01b039283166004820152602481019190915291169063a9059cbb906044016020604051808303816000875af115801561121c573d6000803e3d6000fd5b505050506040513d601f19601f820116820180604052508101906112409190611cff565b61128c5760405162461bcd60e51b815260206004820152601d60248201527f5472616e7366657220746f206368616c6c656e676572206661696c656400000060448201526064016103a3565b6001546002830154600384015460405163a9059cbb60e01b81526001600160a01b039283166004820152602481019190915291169063a9059cbb906044016020604051808303816000875af11580156112e9573d6000803e3d6000fd5b505050506040513d601f19601f8201168201806040525081019061130d9190611cff565b6113595760405162461bcd60e51b815260206004820152601b60248201527f5472616e7366657220746f206f70706f6e656e74206661696c6564000000000060448201526064016103a3565b5050565b6000826003015460026113709190611d47565b60015460405163a9059cbb60e01b81526001600160a01b0385811660048301526024820184905292935091169063a9059cbb906044016020604051808303816000875af11580156113c5573d6000803e3d6000fd5b505050506040513d601f19601f820116820180604052508101906113e99190611cff565b6114355760405162461bcd60e51b815260206004820152601960248201527f5472616e7366657220746f2077696e6e6572206661696c65640000000000000060448201526064016103a3565b505050565b60408051808201909152600080825260208201526040805180820190915260008082526020820181905261146f600143611d34565b40905060015b60048501548110156116da5760006006600087600401848154811061149c5761149c611cba565b6000918252602080832090910154835282810193909352604091820181208251610140810184528154815260018201549481019490945260028101549284019290925260038201546001600160801b038082166060860152600160801b918290048116608086015260048085015480831660a0880152839004821660c087015260058086015480841660e08901529390930482166101008701526006948501549091166101208601528a0154939450909283918a019061155d908790611d34565b8154811061156d5761156d611cba565b6000918252602080832090910154835282810193909352604091820181208251610140810184528154815260018201549481019490945260028101549284019290925260038201546001600160801b038082166060860152600160801b9182900481166080860152600484015480821660a080880182905291849004831660c0880152600586015480841660e08901529390930482166101008701526006909401541661012085015291850151929350916116289190611d5e565b6001600160801b03169050600061163f8287611d85565b9050808460a001516001600160801b0316101561168d5782608001516001600160801b031684606001516001600160801b031611156116885786518761168482611ce6565b9052505b6116c3565b83608001516001600160801b031683606001516001600160801b031611156116c357602087018051906116bf82611ce6565b9052505b5050505080806116d290611ce6565b915050611475565b50909392505050565b6000816020015182600001511115611709575060018201546001600160a01b031661172e565b60208201518251101561172a575060028201546001600160a01b031661172e565b5060005b92915050565b82805482825590600052602060002090810192821561176f579160200282015b8281111561176f578251825591602001919060010190611754565b5061177b929150611848565b5090565b6040518061012001604052806000815260200160006001600160a01b0316815260200160006001600160a01b031681526020016000815260200160608152602001606081526020016117e4604051806040016040528060008152602001600081525090565b8152602001600081526020016000600381111561180357611803611876565b905290565b82805482825590600052602060002090810192821561176f5760005260206000209182015b8281111561176f57825482559160010191906001019061182d565b5b8082111561177b5760008155600101611849565b60006020828403121561186f57600080fd5b5035919050565b634e487b7160e01b600052602160045260246000fd5b600481106118aa57634e487b7160e01b600052602160045260246000fd5b9052565b8781526001600160a01b038781166020830152861660408201526060810185905261010081016118eb608083018680518252602090810151910152565b8360c08301526118fe60e083018461188c565b98975050505050505050565b80356001600160801b038116811461192157600080fd5b919050565b6000806000806000806000806000806101408b8d03121561194657600080fd5b8a35995060208b0135985060408b0135975061196460608c0161190a565b965061197260808c0161190a565b955061198060a08c0161190a565b945061198e60c08c0161190a565b935061199c60e08c0161190a565b92506119ab6101008c0161190a565b91506119ba6101208c0161190a565b90509295989b9194979a5092959850565b634e487b7160e01b600052604160045260246000fd5b600082601f8301126119f257600080fd5b8135602067ffffffffffffffff80831115611a0f57611a0f6119cb565b8260051b604051601f19603f83011681018181108482111715611a3457611a346119cb565b604052938452858101830193838101925087851115611a5257600080fd5b83870191505b84821015611a7157813583529183019190830190611a58565b979650505050505050565b60008060408385031215611a8f57600080fd5b82359150602083013567ffffffffffffffff811115611aad57600080fd5b611ab9858286016119e1565b9150509250929050565b600081518084526020808501945080840160005b83811015611af357815187529582019590820190600101611ad7565b509495945050505050565b6000610140825184526020830151611b2160208601826001600160a01b03169052565b506040830151611b3c60408601826001600160a01b03169052565b50606083015160608501526080830151816080860152611b5e82860182611ac3565b91505060a083015184820360a0860152611b788282611ac3565b91505060c0830151611b9760c086018280518252602090810151910152565b5060e083015161010085810191909152830151611bb861012086018261188c565b509392505050565b602081526000611bd36020830184611afe565b9392505050565b6000602080830181845280855180835260408601915060408160051b870101925083870160005b82811015611c2f57603f19888603018452611c1d858351611afe565b94509285019290850190600101611c01565b5092979650505050505050565b600080600060608486031215611c5157600080fd5b83356001600160a01b0381168114611c6857600080fd5b925060208401359150604084013567ffffffffffffffff811115611c8b57600080fd5b611c97868287016119e1565b9150509250925092565b600060208284031215611cb357600080fd5b5051919050565b634e487b7160e01b600052603260045260246000fd5b634e487b7160e01b600052601160045260246000fd5b600060018201611cf857611cf8611cd0565b5060010190565b600060208284031215611d1157600080fd5b81518015158114611bd357600080fd5b8082018082111561172e5761172e611cd0565b8181038181111561172e5761172e611cd0565b808202811582820484141761172e5761172e611cd0565b6001600160801b03818116838216019080821115611d7e57611d7e611cd0565b5092915050565b600082611da257634e487b7160e01b600052601260045260246000fd5b50069056fea2646970667358221220ddf9e72b3f21997599ecce281b3c81d10d1ed49d4ed2121575724473c0ea000864736f6c63430008110033",
  "linkReferences": {},
  "deployedLinkReferences": {}
}